:100000000C942A000C943F000C943F000C943F0089
:100010000C943F000C943F000C943F000C943F0064
:100020000C943F000C943F000C943F000C943F0054
:100030000C943F000C943F000C943F000C943F0044
:100040000C943F000C943F000C943F000C943F0034
:100050000C943F0011241FBECFE5D8E0DEBFCDBF1A
:1000600010E0A0E6B0E0E4EFF2E002C005900D92EF
:10007000AC37B107D9F70E94C6000C9478010C94F4
:100080000000959A0000000082B3807C82BB089536
:1000900017BA979A82B3887F82BB02C00E94410040
:1000A000C799FCCF8FEF87BB08951F93182F0E942D
:1000B000480018BB82B38B7782BB0E94410018BAFC
:1000C0001F9108951F93182F0E94480018BB9798FE
:1000D000929A0E94410018BA1F910895CF93DF931E
:1000E000EC0103C021960E94620088811816D4F3A7
:1000F000DF91CF9108958158E6E7F0E0E60FF11D1A
:100100009081890F0E94550008951F9381B3846ADE
:1001100081BB86EA9EE00197F1F781E00E945500DD
:1001200084EF91E00197F1F788E30E94550010E118
:10013000812F8A95F1F78EE00E9455001A95F1F70C
:100140001F910895C89B02C082E001C080E0C99958
:1001500081600895D098D1988BB383608BBB08954C
:1001600080E690E00E946E0080E197E229E130E0B5
:10017000F9013197F1F70197D9F781E00E94550015
:100180008CE00E945500089508950895DF92EF9243
:10019000FF920F931F93DF93CF9300D000D00F9265
:1001A000CDB7DEB70E9485000E94B0000E94AA0071
:1001B00080E490E08E010F5F1F4FB8014AE050E0ED
:1001C0000E94330181E061E00E947B00C8010E942F
:1001D0006E0080E4E82EF12C90E0D02E012F9D835C
:1001E0000E94A200182F9D819817C9F3933079F4CB
:1001F000813001F51E141F041CF40894E108F10875
:1002000081E062E00E947B0087E690E011C09230BE
:1002100089F4882379F48FE7E816F1041CF4089434
:10022000E11CF11C81E062E00E947B0089E690E025
:100230000E946E00C7016D2D702F4AE050E00E94B1
:10024000330181E061E00E947B008BE690E00E9438
:100250006E0081E061E00E947B008D2D902F0E9456
:100260006E00912FBCCFFB019F01E8944230C4F097
:100270004532B4F44A3029F497FB1EF490958195E9
:100280009F4F642F77270E946401805D8A330CF0B2
:10029000895D8193CB010097A1F716F45DE251933C
:1002A0001082C9010C945401DC01FC01672F71918B
:1002B0007723E1F7329704C07C916D93708362914C
:1002C000AE17BF07C8F30895AA1BBB1B51E107C0B7
:1002D000AA1FBB1FA617B70710F0A61BB70B881FD6
:1002E000991F5A95A9F780959095BC01CD01089565
:0402F000F894FFCFB0
:1002F40048656C6C6F21004C0052002020202020A7
:0C03040020202020202000004014540085
:00000001FF
