:100000000C942A000C943F000C943F000C943F0089
:100010000C943F000C943F000C943F000C943F0064
:100020000C943F000C943F000C943F000C943F0054
:100030000C943F000C943F000C943F000C943F0044
:100040000C943F000C943F000C943F000C943F0034
:100050000C943F0011241FBECFE5D8E0DEBFCDBF1A
:1000600010E0A0E6B0E0E4E9F1E002C005900D92F6
:10007000AE38B107D9F70E94AA000C94C8000C94BE
:100080000000959A0000000082B3807C82BB089536
:1000900017BA979A82B3887F82BB02C00E94410040
:1000A000C799FCCF8FEF87BB08951F93182F0E942D
:1000B000480018BB82B38B7782BB0E94410018BAFC
:1000C0001F9108951F93182F0E94480018BB9798FE
:1000D000929A0E94410018BA1F910895CF93DF931E
:1000E000EC0103C021960E94620088811816D4F3A7
:1000F000DF91CF9108958158E9E8F0E0E60FF11D16
:100100009081890F0E94550008951F9381B3846ADE
:1001100081BB86EA9EE00197F1F781E00E945500DD
:1001200084EF91E00197F1F788E30E94550010E118
:10013000812F8A95F1F78EE00E9455001A95F1F70C
:100140001F910895829B02C082E001C080E08399E4
:10015000816008950E94850080E690E00E946E0014
:1001600080E29EE429E130E0F9013197F1F701974F
:10017000D9F781E061E00E947B008EE690E00E946A
:100180006E0081E062E00E947B008EE790E0F7CF96
:04019000F894FFCF11
:1001940048656C6C6F20537573616E6921005472ED
:1001A400616C616C6C616C616C616C6121004920F3
:0E01B4006C6F766520796F7521000040145441
:00000001FF
