:100000000C942A000C943F000C943F000C943F0089
:100010000C943F000C943F000C943F000C943F0064
:100020000C943F000C943F000C943F000C943F0054
:100030000C943F000C943F000C943F000C943F0044
:100040000C943F000C943F000C943F000C943F0034
:100050000C943F0011241FBECFE5D8E0DEBFCDBF1A
:1000600010E0A0E6B0E0EEECF2E002C005900D92E8
:10007000A037B107D9F70E94C3000C9465010C9416
:100080000000959A0000000082B3807C82BB089536
:1000900017BA979A82B3887F82BB02C00E94410040
:1000A000C799FCCF8FEF87BB08951F93182F0E942D
:1000B000480018BB82B38B7782BB0E94410018BAFC
:1000C0001F9108951F93182F0E94480018BB9798FE
:1000D000929A0E94410018BA1F910895CF93DF931E
:1000E000EC0103C021960E94620088811816D4F3A7
:1000F000DF91CF9108958158EAE6F0E0E60FF11D17
:100100009081890F0E94550008951F9381B3846ADE
:1001100081BB86EA9EE00197F1F781E00E945500DD
:1001200084EF91E00197F1F788E30E94550010E118
:10013000812F8A95F1F78EE00E9455001A95F1F70C
:100140001F910895C89B02C082E001C080E0C99958
:1001500081600895D098D1988BB383608BBB08954C
:1001600080E690E00E946E0080E197E229E130E0B5
:10017000F9013197F1F70197D9F781E00E94550015
:10018000089508950895AF92BF92CF92DF92EF92B3
:10019000FF920F931F93DF93CF9300D000D0CDB782
:1001A000DEB70E9485000E94B0000E94AA0090E481
:1001B000E92EF12C10E06E010894C11CD11C8AEFCD
:1001C000A82EB12C0E94A200082F1817A1F11330FD
:1001D00019F4813019F504C0112361F48230F1F46F
:1001E0000894E108F10881E062E00E947B0087E664
:1001F00090E012C0123019F4882329F00FC011309A
:1002000069F4833059F40894E11CF11C81E062E048
:100210000E947B0089E690E00E946E00C701B60153
:100220004AE050E00E94200181E061E00E947B00F2
:10023000C6010E946E00C5010197F1F7102FC2CFD1
:10024000FB019F01E8944230C4F04532B4F44A30D7
:1002500029F497FB1EF4909581959F4F642F772783
:100260000E945101805D8A330CF0895D8193CB013E
:100270000097A1F716F45DE251931082C9010C9426
:100280004101DC01FC01672F71917723E1F732977F
:1002900004C07C916D9370836291AE17BF07C8F361
:1002A0000895AA1BBB1B51E107C0AA1FBB1FA617BD
:1002B000B70710F0A61BB70B881F991F5A95A9F70F
:0E02C00080959095BC01CD010895F894FFCF74
:1002CE0048656C6C6F21004C0052000040145400C5
:00000001FF
