:100000000C942A000C943F000C943F000C943F0089
:100010000C943F000C943F000C943F000C943F0064
:100020000C943F000C943F000C943F000C943F0054
:100030000C943F000C943F000C943F000C943F0044
:100040000C943F000C943F000C943F000C943F0034
:100050000C943F0011241FBECFE5D8E0DEBFCDBF1A
:1000600010E0A0E6B0E0E6E4F2E002C005900D92F8
:10007000AE37B107D9F70E94A2000C9421010C946D
:100080000000959A0000000082B3807C82BB089536
:1000900017BA979A82B3887F82BB02C00E94410040
:1000A000C799FCCF8FEF87BB08951F93182F0E942D
:1000B000480018BB82B38B7782BB0E94410018BAFC
:1000C0001F9108951F93182F0E94480018BB9798FE
:1000D000929A0E94410018BA1F910895CF93DF931E
:1000E000EC0103C021960E94620088811816D4F3A7
:1000F000DF91CF9108958158E8E7F0E0E60FF11D18
:100100009081890F0E94550008951F9381B3846ADE
:1001100081BB80E395E70197F1F781E00E945500EC
:1001200080EA9FE00197F1F788E30E94550015E807
:10013000812F8A95F1F78EE00E9455001A95F1F70C
:100140001F910895CF92DF92EF92FF920F931F932A
:10015000DF93CF9300D00F92CDB7DEB70E9485001A
:1001600080E690E00E946E0085E062E00E947B00E5
:100170008DE690E00E946E0000E010E07E010894A1
:10018000E11CF11C88ECC82ED12C81E062E00E94B9
:100190007B00C801B7014AE050E00E94DC00C701C3
:1001A0000E946E0088EE93E0F6013197F1F7019717
:1001B000D9F70F5F1F4FE9CFFB019F01E894423051
:1001C000C4F04532B4F44A3029F497FB1EF49095FC
:1001D00081959F4F642F77270E940D01805D8A33A0
:1001E0000CF0895D8193CB010097A1F716F45DE2D5
:1001F00051931082C9010C94FD00DC01FC01672FB2
:1002000071917723E1F7329704C07C916D937083ED
:100210006291AE17BF07C8F30895AA1BBB1B51E13B
:1002200007C0AA1FBB1FA617B70710F0A61BB70B66
:10023000881F991F5A95A9F780959095BC01CD010B
:060240000895F894FFCFC1
:1002460048656C6C6F20576F726C64210053656350
:0E0256006F6E6420726F772100004014540018
:00000001FF
