:100000000C942A000C943F000C943F000C943F0089
:100010000C943F000C943F000C943F000C943F0064
:100020000C943F000C943F000C943F000C943F0054
:100030000C943F000C943F000C943F000C943F0044
:100040000C943F000C943F000C943F000C943F0034
:100050000C943F0011241FBECFE5D8E0DEBFCDBF1A
:1000600010E0A0E6B0E0EEEDF3E002C005900D92E6
:10007000AE37B107D9F70E9405010C94ED010C943D
:100080000000959A0000000082B3807C82BB089536
:1000900017BA979A82B3887F82BB02C00E94410040
:1000A000C799FCCF8FEF87BB08951F93182F0E942D
:1000B000480018BB82B38B7782BB0E94410018BAFC
:1000C0001F9108951F93182F0E94480018BB9798FE
:1000D000929A0E94410018BA1F910895CF93DF931E
:1000E000EC0103C021960E94620088811816D4F3A7
:1000F000DF91CF9108958158E8E7F0E0E60FF11D18
:100100009081890F0E94550008950F931F938A01D3
:100110000E947B00C8010E946E001F910F910895FC
:100120001F9381B3846A81BB86EA9EE00197F1F751
:1001300081E00E94550084EF91E00197F1F788E398
:100140000E94550010E1812F8A95F1F78EE00E9400
:1001500055001A95F1F71F910895C89B02C082E0DF
:1001600001C080E0C99981600895D098D1988BB37F
:1001700083608BBB089580E690E00E946E0080E172
:1001800097E229E130E0F9013197F1F70197D9F7CA
:1001900081E00E945500089508950895CF92DF925E
:1001A000EF92FF920F931F93DF93CF93CDB7DEB7FC
:1001B000D82EC62ECA01EDB6FEB6332727FD3095E0
:1001C0004DB75EB7421B530B0FB6F8945EBF0FBE20
:1001D0004DBF0DB71EB70F5F1F4FB8014AE050E08B
:1001E0000E948F018D2D6C2DA8010E9485000FB6F5
:1001F000F894FEBE0FBEEDBECF91DF911F910F911F
:10020000FF90EF90DF90CF900895CF92DF92EF9222
:10021000FF920F931F93DF93CF9300D000D00F92E4
:10022000CDB7DEB70E9490000E94BB008EE290E046
:100230000E94B001F82E86E390E00E94B001C82E23
:100240008EE390E00E94B001D82E0E94B5008CE0B1
:100250000E9455008F2D90E08E010F5F1F4FB80157
:100260004AE050E00E948F0181E061E00E947B0043
:10027000C8010E946E0090E0E02E012F9D830E9435
:10028000AD00182F9D819817C9F3933059F4813030
:10029000B1F481E08F1508F4FA9480E161E047E65B
:1002A00050E00BC0923059F4882349F48FEFF812D4
:1002B000F39480E161E049E650E00E9485008F2DD3
:1002C00090E06E2D702F4AE050E00E948F0181E097
:1002D00062E00E947B008BE690E00E946E0081E06D
:1002E00062E04F2D50E023E00E94CE0087E790E0CF
:1002F0000E946E0087E062E04D2D50E023E00E94F6
:10030000CE008DE062E04C2D50E023E00E94CE0054
:100310008EE290E06F2D0E94B801912FAFCFFB01CC
:100320009F01E8944230C4F04532B4F44A3029F4D5
:1003300097FB1EF4909581959F4F642F77270E941D
:10034000D901805D8A330CF0895D8193CB010097E0
:10035000A1F716F45DE251931082C9010C94C90112
:10036000E199FECF9FBB8EBBE09A99278DB308958C
:10037000262FE199FECF9FBB8EBBE09A01970DB26D
:10038000021631F02DBB0FB6F894E29AE19A0FBE37
:100390000895DC01FC01672F71917723E1F7329713
:1003A00004C07C916D9370836291AE17BF07C8F350
:1003B0000895AA1BBB1B51E107C0AA1FBB1FA617AC
:1003C000B70710F0A61BB70B881F991F5A95A9F7FE
:0E03D00080959095BC01CD010895F894FFCF63
:1003DE0048656C6C6F21004C0052002020202020BC
:0E03EE00202020202020007300004014540026
:00000001FF
