:100000000C942A000C943F000C943F000C943F0089
:100010000C943F000C943F000C943F000C943F0064
:100020000C943F000C943F000C943F000C943F0054
:100030000C943F000C943F000C943F000C943F0044
:100040000C943F000C943F000C943F000C943F0034
:100050000C943F0011241FBECFE5D8E0DEBFCDBF1A
:1000600010E0A0E6B0E0E2E3F3E002C005900D92FC
:10007000AE37B107D9F70E94C3000C9497010C94D6
:100080000000959A0000000082B3807C82BB089536
:1000900017BA979A82B3887F82BB02C00E94410040
:1000A000C799FCCF8FEF87BB08951F93182F0E942D
:1000B000480018BB82B38B7782BB0E94410018BAFC
:1000C0001F9108951F93182F0E94480018BB9798FE
:1000D000929A0E94410018BA1F910895CF93DF931E
:1000E000EC0103C021960E94620088811816D4F3A7
:1000F000DF91CF9108958158E8E7F0E0E60FF11D18
:100100009081890F0E94550008951F9381B3846ADE
:1001100081BB86EA9EE00197F1F781E00E945500DD
:1001200084EF91E00197F1F788E30E94550010E118
:10013000812F8A95F1F78EE00E9455001A95F1F70C
:100140001F910895C89B02C082E001C080E0C99958
:1001500081600895D098D1988BB383608BBB08954C
:1001600080E690E00E946E0080E197E229E130E0B5
:10017000F9013197F1F70197D9F781E00E94550015
:10018000089508950895EF92FF920F931F93DF93C0
:10019000CF9300D000D00F92CDB7DEB70E9485007C
:1001A0000E94B0008EE290E00E945A01F82E0E9458
:1001B000AA008CE00E9455008F2D90E08E010F5F09
:1001C0001F4FB8014AE050E00E94390181E061E030
:1001D0000E947B00C8010E946E0090E0E02E012F7B
:1001E0009D830E94A200182F9D819817C9F3933018
:1001F00069F48130D9F481E08F1508F4FA9481E034
:1002000062E00E947B0087E690E00EC0923071F4BD
:10021000882361F48FEE8F1508F0F39481E062E09B
:100220000E947B0089E690E00E946E008F2D90E096
:100230006E2D702F4AE050E00E94390181E061E0AC
:100240000E947B008BE690E00E946E0081E061E0FE
:100250000E947B008E2D902F0E946E0087E790E019
:100260000E946E008EE290E06F2D0E946201912F3D
:10027000B7CFFB019F01E8944230C4F04532B4F49B
:100280004A3029F497FB1EF4909581959F4F642F77
:1002900077270E948301805D8A330CF0895D81930A
:1002A000CB010097A1F716F45DE251931082C901CA
:1002B0000C947301E199FECF9FBB8EBBE09A992706
:1002C0008DB30895262FE199FECF9FBB8EBBE09A98
:1002D00001970DB2021631F02DBB0FB6F894E29AD9
:1002E000E19A0FBE0895DC01FC01672F719177231D
:1002F000E1F7329704C07C916D9370836291AE17E1
:10030000BF07C8F30895AA1BBB1B51E107C0AA1F72
:10031000BB1FA617B70710F0A61BB70B881F991FA6
:100320005A95A9F780959095BC01CD010895F89450
:02033000FFCFFD
:1003320048656C6C6F21004C005200202020202068
:0E0342002020202020200073000040145400D2
:00000001FF
