:100000005EC0C7C175C074C073C072C071C070C01B
:100010006FC06EC06DC06CC06BC06AC069C068C084
:1000200067C066C065C00902220001010080320974
:100030000400000103000000092101010001222346
:10004000000705810308000A1201100100000008E2
:10005000424231E100010102000116037700430032
:100060006F006E00740072006F006C003000310091
:100070001403770069006C0064006800650061008B
:10008000720074000403090405010906A1010507B3
:1000900019E029E7150025017501950881029501F0
:1000A00075082565190029658100C0000002040259
:1000B000050206020702080209020A020B001124C7
:1000C0001FBECFEDCDBF10E0A0E6B0E0EEE0F7E060
:1000D00002C005900D92A236B107D9F710E0A2E652
:1000E000B0E001C01D92AC39B107E1F7C7D20DC332
:1000F00087CFCF93C62F2091710024FF07C0209196
:10010000720038E823272093720003C02AE5209369
:100110007100DC01E3E7F0E09C2F9E0F8D9181934D
:10012000892F8E1B1816D4F36C2F83E790E02DD106
:10013000CC5FC0937100CF910895CF93DF938091EE
:100140008200835087FDA8C090917F0020917E009F
:100150002D3209F09FC0883009F09CC0CCE0D0E07F
:10016000C91BD109CA57DF4F83EC809366008AE52B
:1001700080936000109262008881807619F0CE0131
:100180004FD27FC09A8110926F008981811106C081
:10019000109270002FE630E082E06FC0853019F4D5
:1001A0009093830067C0863009F04EC08B81813008
:1001B00041F488E490E0909381008093800082E194
:1001C0003FC0823041F486E290E0909381008093BA
:1001D000800082E235C08330F1F4911108C084E8D8
:1001E00090E0909381008093800084E029C091305A
:1001F00041F480E790E0909381008093800084E157
:100200001FC09230E1F48AE590E0909381008093E2
:10021000800086E115C0813241F488E390E090933C
:1002200081008093800089E00BC0823241F488E82D
:1002300090E0909381008093800083E201C080E091
:1002400090E4909362001DC0883069F0893019F401
:10025000909385000FC08A3049F08B3059F48BE4BD
:100260008093720007C025E830E002C02FE630E03E
:1002700081E003C02FE630E080E0309381002093DE
:1002800080009F81911104C09E81981708F4892FE6
:1002900080936100109282008091600084FF46C0CC
:1002A000809161008F3F09F441C0C82F893008F068
:1002B000C8E08C1B809361008091660098E88927D4
:1002C00080936600CC2331F1209180003091810031
:1002D0008091620086FF0BC0F901A7E6B0E08C2F89
:1002E0008A0F94919D9331968A13FBCF09C0D9014F
:1002F000E7E6F0E08C2F8E0F9D9191938E13FCCF4B
:100300008C2F815090E00196820F931F9093810073
:10031000809380006C2F87E690E037D0CC5FCC30A4
:1003200019F08FEF80936100C093600084E190B377
:100330009C7031F48150D9F71092830010927D00A7
:10034000DF91CF91089585B7836085BF8BB78064B7
:100350008BBF8BE4809372008AE5809371000895CF
:10036000A82FB92F80E090E041E050EA609530E09E
:1003700009C02D9182279795879510F0842795279E
:10038000305EC8F36F5FA8F30895EADF8D939D9305
:100390000895CF93CFB7CF93C395839BE9F7839B02
:1003A00009C0839B07C0839B05C0839B03C0839BBD
:1003B00001C0A3C0DF93C0917F00DD27CA57DF4F84
:1003C000839B02C0DF91EBCF2F930F931F9300B35A
:1003D0002FEF03FB20F94F933F9310B34FEF01270B
:1003E00003FB21F93BE031C04E7F012F10B32160A8
:1003F00028C0102F4D7F2260000000B329C04B7F22
:100400002460012F000010B32BC010B3477F286079
:100410002AC04F7E00B320612CC04F7D10B32062F4
:100420002FC04F7B00B3206432C0422700B34993F2
:100430004FEF0000102713FB20F910B31C70C9F117
:10044000297F91F2012703FB21F900B3237F89F271
:10045000315058F1102713FB22F910B3277E79F29F
:10046000012703FB23F92F7C81F200B3102713FB34
:1004700024F92F7971F200C010B3012703FB25F98D
:100480002F7359F200C000B3102713FB26F9223056
:1004900040F200C010B3012703FB27F9243028F6EF
:1004A0004F77206810B30000F9CF10E41ABF00277F
:1004B00019C03B503195C31BD04010E41ABF0881CE
:1004C000033CF9F00B34E9F020917D001981110F04
:1004D0001213EDCF4A81441F093641F10D3211F05C
:1004E000013E29F7009384003F914F911F910F9196
:1004F0002F91DF91CAB7C6FD4FCFCF91CFBFCF911C
:10050000189520918400222379F310918200112301
:1005100069F534306AF13093820020937E001091A7
:100520007F003BE0311B30937F0022C000918200AE
:100530000130E4F40AE54F7049F43091600034FD75
:1005400019C000936000C6E6D0E018C03091710079
:1005500034FD10C000937100C2E7D0E00FC02795B2
:10056000A8F45150A9F4220F0000F9CF4AE503C0C6
:1005700042ED01C0432FC4E1D0E032E011B31C6072
:10058000939A11BB02B320E41CE05F93012756E06D
:1005900002BB279520F4515021F4220FF9CF0127F7
:1005A00056E000003B5A02BBD0F2279528F4515088
:1005B00029F4220F0000F9CF012756E0279502BB4E
:1005C00020F4515021F4220FF9CF012756E0299150
:1005D000332302BB21F6037F10918300110FC65114
:1005E000D04002BB11F010937D0010E41ABF0860E8
:1005F00011B3137F402F437F5F9100C000C002BB47
:1006000011BB42BB71CF26B391E080E0392F32237A
:100610008F5F332321F0990F8830C1F780E0089570
:10062000FC0183E690E090938100809380008081BC
:100630008076803209F58181813079F4E4DFE82F1A
:10064000F0E0EE0FFF1FE555FF4F859194918093E9
:1006500063009093640082E00895823041F485E65F
:1006600090E0909381008093800081E008958A302B
:1006700019F483818093650080E008952FE088E17C
:1006800090E00FB6F894A89581BD0FBE21BD8FEF05
:1006900088BB17BA82EF82BB21BB82E081BB85E0B9
:1006A00080BF51DE7894C0E0D0E010E001C0D1E01E
:1006B000A89543DDA8DF181711F0182FD1E008B670
:1006C00001FE09C082E088BF80916500882319F08F
:1006D000C53020F0C550DD2359F301C0C82F8091EB
:1006E000710084FFE4CFE12FF0E0EE0FFF1FE5552E
:1006F000FF4F85919491809363009093640062E032
:0E07000083E690E0F6DCD0E0D3CFF894FFCF94
:02070E005AFF90
:00000001FF
