:1000000012C017C016C015C014C013C012C011C052
:1000100010C00FC00EC00DC00CC00BC00AC009C07C
:1000200008C007C006C011241FBECFEDCDBF15D03C
:100030002EC0E6CF98B321E030E0082E01C0220F99
:100040000A94EAF7672B21F42095292328BB02C0E4
:10005000922B98BB81E090E0089587B3836087BBC3
:10006000C09AC1982FE986E891E0215080409040E5
:10007000E1F700C00000C098C19A2FE986E891E03E
:10008000215080409040E1F700C00000E9CFF89493
:02009000FFCFA0
:00000001FF
