:100000003AC053C151C050C04FC04EC04DC04CC08B
:100010004BC04AC049C048C047C046C045C044C0A4
:1000200043C042C041C00902120001010080190909
:10003000040000000000000012011001FF00000891
:10004000C016DC0500010102000114035700430043
:100050006F006E00740072006F006C0031001403BA
:10006000770069006C006400680065006100720040
:1000700074000403090411241FBECFEDCDBF10E0AE
:10008000A0E6B0E0E6E5F5E002C005900D92A236EC
:10009000B107D9F710E0A2E6B0E001C01D92AD387B
:1000A000B107E1F73AD255C2ABCFCF93DF9380913E
:1000B0007300835087FD82C09091700020916F0083
:1000C0002D3209F079C0883009F076C0CCE0D0E05C
:1000D000C91BD109C958DF4F83EC809363008AE5BF
:1000E00080936000109262008881807619F0CE01C2
:1000F00009D259C09A8110926C008981811106C081
:1001000010926D002CE630E082E049C0853019F491
:100110009093740038C0863081F58B81813019F45A
:1001200088E390E004C0823041F486E290E090934E
:1001300072008093710082E11CC08330C9F4911178
:1001400008C082E790E0909372008093710084E091
:1001500010C0913019F48EE590E004C0923041F463
:100160008AE490E0909372008093710084E101C072
:1001700080E090E49093620016C0883069F0893086
:1001800029F4909376002CE630E004C02CE630E0B1
:100190008A3021F080E003C026E730E081E0309330
:1001A0007200209371009F81911104C09E81981765
:1001B00008F4892F80936100109273008091600091
:1001C00084FF46C0809161008F3F09F441C0C82F71
:1001D000893008F0C8E08C1B809361008091630037
:1001E00098E8892780936300CC2331F12091710036
:1001F000309172008091620086FF0BC0F901A4E685
:10020000B0E08C2F8A0F94919D9331968A13FBCF87
:1002100009C0D901E4E6F0E08C2F8E0F9D919193F7
:100220008E13FCCF8C2F815090E00196820F931F8C
:1002300090937200809371006C2F84E690E031D02F
:10024000CC5FCC3019F08FEF80936100C0936000D9
:1002500084E190B39C7031F48150D9F7109274000E
:1002600010926E00DF91CF91089585B7826085BFAF
:100270008BB780648BBF0895A82FB92F80E090E0E2
:1002800041E050EA609530E009C02D9182279795B2
:10029000879510F084279527305EC8F36F5FA8F329
:1002A0000895EADF8D939D930895CF93CFB7CF93B1
:1002B000C395839BE9F7839B09C0839B07C0839BFE
:1002C00005C0839B03C0839B01C0A1C0DF93C09185
:1002D0007000DD27C958DF4F839B02C0DF91EBCF51
:1002E0002F930F931F9300B32FEF03FB20F94F932E
:1002F0003F9310B34FEF012703FB21F93BE031C0DF
:100300004E7F012F10B3216028C0102F4D7F226037
:10031000000000B329C04B7F2460012F000010B300
:100320002BC010B3477F28602AC04F7E00B32061E6
:100330002CC04F7D10B320622FC04F7B00B32064D0
:1003400032C0422700B349934FEF0000102713FB40
:1003500020F910B31C70C9F1297F91F2012703FB2A
:1003600021F900B3237F89F2315058F1102713FB94
:1003700022F910B3277E79F2012703FB23F92F7CA2
:1003800081F200B3102713FB24F92F7971F200C01A
:1003900010B3012703FB25F92F7359F200C000B3F6
:1003A000102713FB26F9223040F200C010B30127BA
:1003B00003FB27F9243028F64F77206810B300009C
:1003C000F9CF10E41ABF002717C03B503195C31B6B
:1003D000D04010E41ABF0881033CE9F00B34D9F097
:1003E00020916E001981110F1213EDCF093641F1E2
:1003F0000D3211F0013E39F7009375003F914F9196
:100400001F910F912F91DF91CAB7C6FD51CFCF91A8
:10041000CFBFCF91189520917500222379F31091C9
:100420007300112311F5343012F1309373002093CF
:100430006F00109170003BE0311B3093700017C0CB
:100440000091730001308CF40AE53091600034FDB6
:1004500010C000936000C3E6D0E00FC02795A8F459
:100460005150A9F4220F0000F9CF4AE503C042ED34
:1004700001C0432FC4E1D0E032E011B31C60939A75
:1004800011BB02B320E41CE05F93012756E002BBDE
:10049000279520F4515021F4220FF9CF012756E07F
:1004A00000003B5A02BBD0F2279528F4515029F4A2
:1004B000220F0000F9CF012756E0279502BB20F458
:1004C000515021F4220FF9CF012756E0299133230F
:1004D00002BB21F6037F10917400110FC651D0406A
:1004E00002BB11F010936E0010E41ABF086011B344
:1004F000137F402F437F5F9100C000C002BB11BB40
:1005000042BB7CCFFC018181882321F0813019F42A
:10051000C09A01C0C09880E0089581E087BB2EE0BA
:1005200088E190E00FB6F894A89581BD0FBE21BD7B
:100530009CDE8B9A8AEFA895EFE6F7E13197F1F709
:1005400000C000008150B9F78B987894A895ADDD74
:06055000FDCFF894FFCF7F
:020556005AFF4A
:00000001FF
