:100000000EC01DC01CC01BC01AC019C018C017C02C
:1000100016C015C014C013C012C011C010C01124E6
:100020001FBECFE5D2E0DEBFCDBF10E0A0E6B0E05E
:1000300001C01D92A136B107E1F702D0C4C0E0CFE4
:1000400080E090E0AAD081708093600004B600FE4A
:1000500009C091E094BF682F69276093600080E039
:1000600090E0A3D0B89AB99ABA9ABB9ABC9A80E1A8
:1000700098E024E032E061E05091600048B35130F4
:1000800009F045C0482748BB49E979E9E1E041501A
:100090007040E040E1F7000048B3482748BB48B350
:1000A000492748BB49E979E9E1E041507040E04027
:1000B000E1F7000048B3492748BB48B3422748BB93
:1000C00049E979E9E1E041507040E040E1F70000A2
:1000D00048B3422748BB48B3432748BB49E979E9BD
:1000E000E1E041507040E040E1F7000048B34327B1
:1000F00048BB48B3452748BB49E979E9E1E04150AD
:100100007040E040E1F7000048B3452744C046276F
:1001100048BB49E959E971E0415050407040E1F76E
:10012000000048B3462748BB48B3432748BBE9E92A
:1001300049E951E0E15040405040E1F7000048B348
:10014000432748BB48B3422748BB79E9E9E941E086
:100150007150E0404040E1F7000048B3422748BBFF
:1001600048B3492748BB59E979E9E1E0515070406B
:10017000E040E1F7000048B3492748BB48B34827AF
:1001800048BB49E959E971E0415050407040E1F7FE
:10019000000048B3482748BB6FCFE199FECF9FBB13
:1001A0008EBBE09A99278DB30895262FE199FECF53
:1001B0001CBA9FBB8EBB2DBB0FB6F894E29AE19A96
:0A01C0000FBE01960895F894FFCFDA
:00000001FF
