:1000000041C078C158C057C056C055C054C053C035
:1000100052C051C050C04FC04EC04DC04CC04BC06C
:100020004AC049C048C009021200010100801909F4
:10003000040000000000000012011001FF00000891
:10004000C016DC0500010102000116035500530033
:1000500042006500780061006D0070006C00650072
:10006000200363006F006400650061006E0064009F
:100070006C006900660065002E0063006F006D0073
:100080000403090411241FBECFEDCDBF10E0A0E68C
:10009000B0E0E2E3F6E002C005900D92A237B107AE
:1000A000D9F710E0A2E7B0E001C01D92AF39B10767
:1000B000E1F7A1D2BCC2A4CFCF93DF9360918500BA
:1000C000635067FDA0C080918200CCE0D0E0C81BE7
:1000D000D109C757DF4F809181008D3209F082C06E
:1000E000683009F08EC083EC809375008AE58093B8
:1000F0006000109272008881807619F0CE0127D2BC
:100100005EC09A8110927E008981811106C0109292
:100110007F002EE730E082E04EC0853019F49093E6
:1001200086003DC08630A9F58B81813019F488E3C3
:1001300090E004C0823041F486E290E09093840025
:100140008093830082E121C08330F1F4911108C0D3
:1001500080E890E0909384008093830084E015C051
:10016000913041F480E690E0909384008093830086
:1001700080E20BC0923041F48AE490E090938400D6
:100180008093830086E101C080E090E49093720048
:1001900016C0883069F0893029F4909388002EE7E2
:1001A00030E004C02EE730E08A3021F080E003C068
:1001B00028E830E081E030938400209383008F3F73
:1001C00039F4988197FD8E8190E89093720007C072
:1001D0009F81911104C09E81981708F4892F809304
:1001E00061000FC08091720087FF0BC0CE01E6D185
:1001F0008F3F21F48EE18093600003C08111109243
:100200006100109285008091600084FF46C080915B
:1002100061008F3F09F441C0C82F893008F0C8E061
:100220008C1B809361008091750098E889278093EA
:100230007500CC2331F120918300309184008091AE
:10024000720086FF0BC0F901A6E7B0E08C2F8A0F81
:1002500094919D9331968A13FBCF09C0D901E6E7AB
:10026000F0E08C2F8E0F9D9191938E13FCCF8C2FED
:10027000815090E00196820F931F909384008093A9
:1002800083006C2F86E790E031D0CC5FCC3019F042
:100290008FEF80936100C093600084E190B39C7005
:1002A00031F48150D9F71092860010928000DF91CE
:1002B000CF91089585B7826085BF8BB780648BBF6F
:1002C0000895A82FB92F80E090E041E050EA6095B2
:1002D00030E009C02D9182279795879510F08427EB
:1002E0009527305EC8F36F5FA8F30895EADF8D931A
:1002F0009D930895CF93CFB7CF93C395839BE9F791
:10030000839B09C0839B07C0839B05C0839B03C05D
:10031000839B01C0A1C0DF93C0918200DD27C75736
:10032000DF4F839B02C0DF91EBCF2F930F931F937F
:1003300000B32FEF03FB20F94F933F9310B34FEF20
:10034000012703FB21F93BE031C04E7F012F10B3A1
:10035000216028C0102F4D7F2260000000B329C00B
:100360004B7F2460012F000010B32BC010B3477FD8
:1003700028602AC04F7E00B320612CC04F7D10B38F
:1003800020622FC04F7B00B3206432C0422700B3ED
:1003900049934FEF0000102713FB20F910B31C7096
:1003A000C9F1297F91F2012703FB21F900B3237FD3
:1003B00089F2315058F1102713FB22F910B3277E30
:1003C00079F2012703FB23F92F7C81F200B3102778
:1003D00013FB24F92F7971F200C010B3012703FB3E
:1003E00025F92F7359F200C000B3102713FB26F92B
:1003F000223040F200C010B3012703FB27F924305C
:1004000028F64F77206810B30000F9CF10E41ABF28
:10041000002717C03B503195C31BD04010E41ABFD2
:100420000881033CE9F00B34D9F020918000198158
:10043000110F1213EDCF093641F10D3211F0013ECB
:1004400039F7009387003F914F911F910F912F91A2
:10045000DF91CAB7C6FD51CFCF91CFBFCF911895CD
:1004600020918700222379F310918500112311F543
:10047000343012F130938500209381001091820076
:100480003BE0311B3093820017C0009185000130A2
:100490008CF40AE53091600034FD10C000936000D8
:1004A000C5E7D0E00FC02795A8F45150A9F4220F5A
:1004B0000000F9CF4AE503C042ED01C0432FC4E17B
:1004C000D0E032E011B31C60939A11BB02B320E478
:1004D0001CE05F93012756E002BB279520F45150A2
:1004E00021F4220FF9CF012756E000003B5A02BB4E
:1004F000D0F2279528F4515029F4220F0000F9CFAB
:10050000012756E0279502BB20F4515021F4220F19
:10051000F9CF012756E02991332302BB21F6037F4F
:1005200010918600110FC651D04002BB11F01093FC
:10053000800010E41ABF086011B3137F402F437F7F
:100540005F9100C000C002BB11BB42BB7CCFFC016D
:100550008181823079F028F4882351F0813051F57F
:1005600005C0833079F0843029F519C0C09A22C0C3
:10057000C09820C082E690E090938400809383002E
:1005800080E10895828180936900838180936A006D
:10059000848180936B00858180936C000BC0868181
:1005A0008093730010927400813130F080E1809369
:1005B000730002C080E008958FEF089520917300CA
:1005C000A0917400FC0106C09191B0E0AE59BF4FFC
:1005D0009C93A32FA21738F0A093740081E0A21778
:1005E00049F080E008953A2F3F5F9E2F981B9617A1
:1005F00058F3F2CF089581E087BB2EE088E190E0C8
:100600000FB6F894A89581BD0FBE21BD53DE8B9A1D
:100610008AEFA895EFE6F7E13197F1F700C0000007
:100620008150B9F78B987894A89546DDFDCFF89462
:02063000FFCFFA
:100632005AFF48656C6C6F2C205553422100000014
:020642000000B6
:00000001FF
