:100000000C942A000C9447000C9447000C94470071
:100010000C9447000C9447000C9447000C94470044
:100020000C9447000C9447000C9447000C94470034
:100030000C9447000C9447000C9447000C94470024
:100040000C9447000C9447000C9447000C94470014
:100050000C94470011241FBECFE5D8E0DEBFCDBF12
:1000600010E0A0E6B0E0EEEDF6E002C005900D92E3
:10007000A639B107D9F720E0A6E9B0E001C01D928A
:10008000A03AB207E1F70E94B0010C946D030C9402
:100090000000959A0000000082B3807C82BB089526
:1000A00017BA979A82B3887F82BBC79B03C00E940E
:1000B0004900FBCF8FEF87BB0895CF93DF931F924B
:1000C000CDB7DEB789830E945000898188BB82B397
:1000D0008B7782BB0E94490018BA0F90DF91CF91B5
:1000E0000895CF93DF931F92CDB7DEB789830E9427
:1000F0005000898188BB9798929A0E94490018BA4B
:100100000F90DF91CF910895CF93DF93EC01899108
:1001100018161CF40E947100FACFDF91CF91089558
:100120008158E62FF0E0E15AFF4F9081890F0C943F
:100130005D00CF93DF93EA010E949000CE01DF9132
:10014000CF910C948400CF92DF92EF92FF920F93A5
:100150001F93CF93DF93CDB7DEB7D82EC62ECA013B
:10016000EDB6FEB64DB75EB7421B510927FD53955C
:100170000FB6F8945EBF0FBE4DBF0DB71EB70F5F31
:100180001F4F4AE0B8010E940B03A8016C2D8D2D72
:100190000E9499000FB6F894FEBE0FBEEDBEDF912F
:1001A000CF911F910F91FF90EF90DF90CF90089526
:1001B00081B3846A81BB85EA9EE00197F1F700C0B4
:1001C000000081E00E945D0083EF91E00197F1F76C
:1001D00000C0000088E30E945D0090E19A95F1F76D
:1001E00000C08EE00E945D0080E18A95F1F700C0BA
:1001F0000895C89B02C082E001C080E0C999816077
:100200000895D098D1988BB383608BBB0895D29812
:10021000DA9A0895D39AD49ADC98DB98089584E604
:1002200090E00E9484002FE78AE196E02150804010
:100230009040E1F700C0000081E00C945D0089B3BC
:1002400090E080959095847099270895CF93DF93DF
:10025000C0919800D0919900CC0FDD1F0E941F0122
:10026000D06E21E030E0892B11F020E030E02C2B23
:100270003D2B309399002093980081E090E0211568
:10028000304F11F080E090E0DF91CF91089588E148
:1002900081BD88E081BDFFCF00919A0010919B0045
:1002A00061E081E00E94900081E790E00E9484007C
:1002B0008EB583608EBDD0E0C0E0FF24F3940E9431
:1002C00026019093970080939600892B09F0CF2503
:1002D000CC2309F442C0DC9A8CB59DB589309D438E
:1002E00018F01DBC1CBCDF5F4D2F50E080919E00BC
:1002F00090919F0048175907D8F080E090E0801750
:10030000910781F0DB9AE9EFF0E03197F1F700C057
:100310000000DB98E9EFF0E03197F1F700C0000052
:100320000196EDCF23E062E081E00E94A300D0E0DF
:100330008CB59DB58031974210F262E081E00E9459
:10034000900087E890E00E9484004C2F50E02AE063
:1003500062E088E00E94A300B2CFDC98BDCF089590
:100360000E94D8000E940F0180E290E00E944003AA
:1003700090939F0080939E0080E390E00E94400352
:1003800090939B0080939A008FE390E00E9440033B
:1003900090939D0080939C000E9401010E940701A0
:1003A0000E940A0178948CE00E945D0080919E007A
:1003B00090919F00019631F481E090E090939F002E
:1003C00080939E0080919A0090919B00019631F459
:1003D00084E690E090939B0080939A00E12CF12CAE
:1003E00000E010E0C0E0D0E0C12CAA24A394B12C1E
:1003F000812C24E0922E66246A94712C0F5F1F4F8B
:100400000E9426019093970080939600892B39F0E3
:10041000EA94EF2809F47AC0EE24E394F12C0E94C8
:10042000F900D82EC81669F193E0C91213C021E073
:10043000821327C0E114F10409F0A5C080919E0049
:1004400090919F00019709F0A9C070929F0060925F
:100450009E00A8C082E0C81214C0D11012C0E114DE
:10046000F10409F0A2C080919E0090919F00019636
:100470008F3F910508F4AEC0B0929F00A0929E00FD
:10048000ADC005361105D4F1E114F10409F0B3C093
:1004900041E850E061E082E00E94990047E850E0C6
:1004A00061E08EE00E94990043E850E062E081E064
:1004B0000E94990040919E0050919F0025E062E0CB
:1004C00081E00E94A30089E890E00E94840043E854
:1004D00050E062E08BE00E94990040919A005091B8
:1004E0009B0025E062E08BE00E94A30021E0AE01CA
:1004F00061E080E10E94A30000E010E089EF90E05D
:100500000197F1F700C00000CD2C78CF60919E00DC
:1005100070919F0080E290E00E94460360919A00F3
:1005200070919B0080E390E00E94460360919C00E4
:1005300070919D008FE390E00E94460381E00E944D
:100540005D0087EA91E60197F1F700C0000061E0E5
:1005500081E00E9490008BE890E00E9484009FE37D
:100560002DE083E0915020408040E1F700C0000082
:1005700081E00E945D0087EA91E60197F1F700C0F3
:1005800000000E944C0180919A0090919B0001977D
:1005900041F590929B0080929A0027C090939F0013
:1005A00080939E00C0E0D0E031C080919A0090918D
:1005B0009B000196811524E0920728F0B0929B00E1
:1005C000A0929A0004C090939B0080939A00C1E08F
:1005D000D0E00DC090939F0080939E00C1E0D0E0DA
:1005E00015C090939B0080939A00C0E0D0E0053640
:1005F00011050CF483CF41E850E061E08EE00E94E9
:10060000990047E850E061E082E04CCF05361105E3
:100610000CF03ECF73CFBB274A3031F4992322F43C
:10062000BDE2909581959F4F0C941703BB27FB016A
:100630005527AA27880F991FAA1FA41710F0A41BDB
:1006400083955051B9F7A05DAA3308F0A95DA19335
:10065000009779F7B111B1931192CB010C9430034B
:10066000DC01FC01672F71917723E1F7329704C019
:100670007C916D9370836291AE17BF07C8F30895A4
:10068000A8E1B0E042E050E00C944E030196272F21
:100690000E945D030C945C03DC01CB01FC01E19939
:1006A000FECF06C0FFBBEEBBE09A31960DB20D92B5
:1006B00041505040B8F70895262FE199FECF9FBBD7
:1006C0008EBBE09A01970DB2021631F02DBB0FB62A
:0E06D000F894E29AE19A0FBE0895F894FFCFD5
:1006DE00004014544C61737A6C6F205370616365E3
:1006EE000052756E6E696E672070726F6772616D03
:1006FE0000760020202020200073004461746120C9
:06070E00736176656400D2
:00000001FF
