:1000000062C0DFC179C078C077C076C075C074C0E7
:1000100073C072C071C070C06FC06EC06DC06CC064
:100020006BC06AC069C00902220001010080190981
:100030000400000103010100092101010001223F28
:10004000000705810308000A1201100100000008E2
:10005000424231E100010102000114035700430054
:100060006F006E00740072006F006C0032001403A9
:10007000570069006C006400680065006100720050
:1000800074000403090405010906A101750195081E
:10009000050719E029E7150025018102950175087A
:1000A000810395057501050819012905910295013E
:1000B0007503910395067508150025650507190058
:1000C00029658100C00011241FBECFEDCDBF10E017
:1000D000A0E6B0E0ECE8F7E002C005900D92A4368F
:1000E000B107D9F710E0A4E6B0E001C01D92A43A30
:1000F000B107E1F7EED248C383CFCF93C62F20914B
:10010000790024FF07C020917A0038E82327209344
:100110007A0003C02AE520937900DC01EBE7F0E0E8
:100120009C2F9E0F8D918193892F8E1B1816D4F3CF
:100130006C2F8BE790E041D1CC5FC0937900CF91D9
:100140000895CF93DF9360918A00635067FDBCC030
:1001500080918700CCE0D0E0C81BD109C257DF4FA7
:10016000809186008D3209F09EC0683009F0AAC0E7
:1001700083EC80936E008AE58093600010926400A7
:100180008881807619F0CE0156D27AC09A81109279
:1001900077008981811106C01092780027E730E04E
:1001A00082E06AC0853019F490938B0062C086307B
:1001B00009F049C08B81813041F488E490E090934C
:1001C00089008093880082E13AC0823041F486E25F
:1001D00090E0909389008093880082E230C0833061
:1001E000C9F4911108C082E890E09093890080934F
:1001F000880084E024C0913019F48EE690E004C0B9
:100200009230E1F48AE590E0909389008093880031
:1002100084E115C0813241F488E390E09093890035
:100220008093880089E00BC0823241F486E890E038
:1002300090938900809388008FE301C080E090E470
:10024000909364001DC0883069F0893019F4909350
:100250008D000FC08A3049F08B3059F48BE48093C5
:100260007A0007C02DE830E002C027E730E081E0E7
:1002700003C027E730E080E03093890020938800B6
:100280008F3F39F4988197FD8E8190E890936400B8
:1002900007C09F81911104C09E81981708F4892F8F
:1002A000809361000FC08091640087FF0BC0CE0176
:1002B000F2D18F3F21F48EE18093600003C0811161
:1002C0001092610010928A008091600084FF46C005
:1002D000809161008F3F09F441C0C82F893008F038
:1002E000C8E08C1B8093610080916E0098E889279C
:1002F00080936E00CC2331F12091880030918900E9
:100300008091640086FF0BC0F901AFE6B0E08C2F4E
:100310008A0F94919D9331968A13FBCF09C0D9011E
:10032000EFE6F0E08C2F8E0F9D9191938E13FCCF12
:100330008C2F815090E00196820F931F909389003B
:10034000809388006C2F8FE690E037D0CC5FCC3064
:1003500019F08FEF80936100C093600084E190B347
:100360009C7031F48150D9F710928B001092850067
:10037000DF91CF91089585B7826085BF8BB7806488
:100380008BBF8BE480937A008AE58093790008958F
:10039000A82FB92F80E090E041E050EA609530E06E
:1003A00009C02D9182279795879510F0842795276E
:1003B000305EC8F36F5FA8F30895EADF8D939D93D5
:1003C0000895CF93CFB7CF93C395839BE9F7839BD2
:1003D00009C0839B07C0839B05C0839B03C0839B8D
:1003E00001C0A3C0DF93C0918700DD27C257DF4F54
:1003F000839B02C0DF91EBCF2F930F931F9300B32A
:100400002FEF03FB20F94F933F9310B34FEF0127DA
:1004100003FB21F93BE031C04E7F012F10B3216077
:1004200028C0102F4D7F2260000000B329C04B7FF1
:100430002460012F000010B32BC010B3477F286049
:100440002AC04F7E00B320612CC04F7D10B32062C4
:100450002FC04F7B00B3206432C0422700B34993C2
:100460004FEF0000102713FB20F910B31C70C9F1E7
:10047000297F91F2012703FB21F900B3237F89F241
:10048000315058F1102713FB22F910B3277E79F26F
:10049000012703FB23F92F7C81F200B3102713FB04
:1004A00024F92F7971F200C010B3012703FB25F95D
:1004B0002F7359F200C000B3102713FB26F9223026
:1004C00040F200C010B3012703FB27F9243028F6BF
:1004D0004F77206810B30000F9CF10E41ABF00274F
:1004E00019C03B503195C31BD04010E41ABF08819E
:1004F000033CF9F00B34E9F0209185001981110FCC
:100500001213EDCF4A81441F093641F10D3211F02B
:10051000013E29F700938C003F914F911F910F915D
:100520002F91DF91CAB7C6FD4FCFCF91CFBFCF91EB
:10053000189520918C00222379F310918A001123C1
:1005400069F534306AF130938A0020938600109167
:1005500087003BE0311B3093870022C000918A0066
:100560000130E4F40AE54F7049F43091600034FD45
:1005700019C000936000CEE6D0E018C03091790039
:1005800034FD10C000937900CAE7D0E00FC0279572
:10059000A8F45150A9F4220F0000F9CF4AE503C096
:1005A00042ED01C0432FC4E1D0E032E011B31C6042
:1005B000939A11BB02B320E41CE05F93012756E03D
:1005C00002BB279520F4515021F4220FF9CF0127C7
:1005D00056E000003B5A02BBD0F2279528F4515058
:1005E00029F4220F0000F9CF012756E0279502BB1E
:1005F00020F4515021F4220FF9CF012756E0299120
:10060000332302BB21F6037F10918B00110FC651DB
:10061000D04002BB11F01093850010E41ABF0860AF
:1006200011B3137F402F437F5F9100C000C002BB16
:1006300011BB42BB71CFFC0180818076803249F5CD
:1006400081818230D9F018F4813019F505C08930E4
:1006500079F08A30F1F41AC085E690E09093890031
:1006600080938800109265001092670088E00895DA
:1006700086819781019769F48FEF08958DE690E068
:10068000909389008093880081E00895838180930E
:100690006D0080E00895FC018081909162008917CF
:1006A00049F0809362008091620081FF02C0C09A8D
:1006B00001C0C09881E0089510926500982F91566E
:1006C0009A3120F48D558093670008951092670049
:1006D000089581E087BB82E088BB1092650010928C
:1006E00066001092670010926800109269001092E4
:1006F0006A0010926B0010926C002EE088E190E08E
:100700000FB6F894A89581BD0FBE21BD34DE8B9A3B
:100710008AEFA895EFE6F7E13197F1F700C0000006
:100720008150B9F78B9883B7826083BF7894C0E01B
:10073000D0E0A89506DDB19907C0C11123C0C1E082
:10074000DF3F01F1C0E01EC0DF3F09F0DF5F8091B5
:10075000790084FFEECFCC2361F3809162008F3F5C
:1007600041F3C13019F0C23039F404C088E7A4DF86
:10077000C2E003C080E0A0DFC0E068E085E690E072
:0C078000BCDCD7CFD0E0E2CFF894FFCF74
:04078C005AFFFF0011
:00000001FF
