:100000005DC056C274C073C072C071C070C06FC092
:100010006EC06DC06CC06BC06AC069C068C067C08C
:1000200066C065C064C0050C0901A1018501190005
:100030002A3C021500263C02950175108100C0047F
:100040000309042203480069007200730074002051
:100050000041007500640069006F0020004C0061E1
:100060000062007300220355005300420020005636
:10007000006F006C0075006D0065002000540032B8
:10008000003300310033001201100100000008C0ED
:1000900016DB270001010200010902220001010014
:1000A000803209040000010301010009210101005F
:1000B000012219000705810308000A0011241FBE50
:1000C000CFEDCDBF10E0A0E6B0E0E8E2F7E002C07F
:1000D00005900D92A236B107D9F710E0A2E6B0E084
:1000E00001C01D92AF39B107E1F725D01BC388CFFE
:1000F000FC0182E690E090938400809383008081ED
:1001000080768032B1F48181813011F483E00895EA
:10011000823041F485E690E09093840080938300E0
:1001200081E008958A3029F483818093650080E01E
:10013000089580E00895FF920F931F9337D072D0F7
:100140008B9A20E048EB5BE003C0CA010197F1F70E
:100150002150D9F78B98789481E0809362001092B7
:10016000640000E0FF246BD028D052D08F3F11F400
:100170001AEE05C0813011F419EE01C010E04DD027
:10018000801731F0813019F0082F12EE01C001E024
:10019000F11649F38091740084FFE5CF109363005A
:1001A00063E082E690E04AD1F12EDDCF8C988D9805
:1001B0008998949A959A919A089580B390E024E052
:1001C000969587952A95E1F7682F61708599626009
:1001D00080916700482F50E0262F30E0CA018370DD
:1001E00090702817390799F0440F551F440F551F79
:1001F000262F242B20936700213E21F48FEF80933C
:1002000066000895223D19F481E080936600089508
:100210008091660010926600089580B3869580955F
:100220008170089585B7826085BF8BB780648BBF6E
:100230008BE4809375008AE58093740008951F9382
:10024000CF93DF9390918500935097FD9CC02091B0
:100250008200809181008D3209F093C0983009F0BE
:1002600090C0CCE0D0E0C21BD109C757DF4F83EC70
:10027000809369008AE5809360001092680088810D
:10028000807621F0CE0134DF282F72C09A8110923F
:1002900072008981882321F41092730022E062C0E9
:1002A000853019F4909386005CC0863009F045C013
:1002B0008B81813041F487E890E0909384008093B3
:1002C000830022E136C0823019F489E990E016C03B
:1002D0008330D1F48A81882341F48FE390E09093B6
:1002E00084008093830024E024C0813019F483E4E7
:1002F00090E004C08230E1F485E690E090938400C1
:100300008093830022E215C0813241F48BEA90E0B1
:10031000909384008093830029E00BC0823241F4E3
:1003200086E290E0909384008093830029E101C0ED
:1003300020E080E4809368001BC0883021F421E035
:1003400088E890E011C0893019F49093880009C0C2
:100350008A3011F421E006C08B3019F48BE48093CD
:10036000750020E082E790E0909384008093830002
:100370008F81882321F48E81821708F4282F2093FF
:100380006100109285008091600084FF49C08091D7
:1003900061008F3F09F444C0182F893008F018E03D
:1003A000811B809361008091690098E88927809380
:1003B0006900112341F120918300309184008091E4
:1003C000680086FF0DC0AAE6B0E080E090E0F90189
:1003D000E80FF91FE491ED9301961817C1F708C0D3
:1003E000912FD901EAE6F0E08D9181939150E1F7E8
:1003F0001150812F90E01F5F0196820F931F909301
:10040000840080938300612F8AE690E04DD0612FB5
:100410006C5F6C3019F08FEF809361006093600027
:1004200094E180B38C7031F49150D9F7109286002A
:1004300010928000DF91CF911F9108951F93DC01EE
:10044000162F8091740084FF07C08091750098E892
:1004500089278093750003C08AE580937400912FEB
:10046000E6E7F0E08D9181939150E1F7612F86E707
:1004700090E01AD01C5F109374001F910895A82F6C
:10048000B92F80E090E041E050EA609530E009C08B
:100490002D9182279795879510F084279527305EB8
:1004A000C8F36F5FA8F30895EADF8D939D930895D5
:1004B000CF93CFB7CF93C395839BE9F7839B09C0B5
:1004C000839B07C0839B05C0839B03C0839B01C0A4
:1004D000A3C0DF93C0918200DD27C757DF4F839B06
:1004E00002C0DF91EBCF2F930F931F9300B32FEF39
:1004F00003FB20F94F933F9310B34FEF012703FB0A
:1005000021F93BE031C04E7F012F10B3216028C09C
:10051000102F4D7F2260000000B329C04B7F246064
:10052000012F000010B32BC010B3477F28602AC0F2
:100530004F7E00B320612CC04F7D10B320622FC0CE
:100540004F7B00B3206432C0422700B349934FEF82
:100550000000102713FB20F910B31C70C9F1297F8C
:1005600091F2012703FB21F900B3237F89F2315077
:1005700058F1102713FB22F910B3277E79F20127D7
:1005800003FB23F92F7C81F200B3102713FB24F91E
:100590002F7971F200C010B3012703FB25F92F73E7
:1005A00059F200C000B3102713FB26F9223040F2A5
:1005B00000C010B3012703FB27F9243028F64F773A
:1005C000206810B30000F9CF10E41ABF002719C04B
:1005D0003B503195C31BD04010E41ABF0881033C47
:1005E000F9F00B34E9F0209180001981110F1213FA
:1005F000EDCF4A81441F093641F10D3211F0013E21
:1006000029F7009387003F914F911F910F912F91F0
:10061000DF91CAB7C6FD4FCFCF91CFBFCF9118950D
:1006200020918700222379F310918500112369F529
:1006300034306AF13093850020938100109182005C
:100640003BE0311B3093820022C0009185000130D5
:10065000E4F40AE54F7049F43091600034FD19C0AC
:1006600000936000C9E6D0E018C03091740034FDFA
:1006700010C000937400C5E7D0E00FC02795A8F420
:100680005150A9F4220F0000F9CF4AE503C042ED12
:1006900001C0432FC4E1D0E032E011B31C60939A53
:1006A00011BB02B320E41CE05F93012756E002BBBC
:1006B000279520F4515021F4220FF9CF012756E05D
:1006C00000003B5A02BBD0F2279528F4515029F480
:1006D000220F0000F9CF012756E0279502BB20F436
:1006E000515021F4220FF9CF012756E029913323ED
:1006F00002BB21F6037F10918600110FC651D04036
:1007000002BB11F01093800010E41ABF086011B30F
:10071000137F402F437F5F9100C000C002BB11BB1D
:0807200042BB71CFF894FFCF3A
:020728005AFF76
:00000001FF
